S0100000442D31395F732D312E7372656309
S11300000C9434000C943E000C943E000C943E007E
S11300100C943E000C943E000C943E000C943E0064
S11300200C943E000C943E000C943E000C943E0054
S11300300C943E000C943E000C943E000C943E0044
S11300400C943E000C943E000C943E000C943E0034
S11300500C943E000C943E000C943E000C943E0024
S11300600C943E000C943E0011241FBECFEFD8E048
S1130070DEBFCDBF0E9440000C945A000C940000D7
S113008087E084B98AE090E027E025B9EFE4F3EC57
S11300903197F1F700C0000015B8EFE4F3EC3197A5
S11300A0F1F700C00000019781F780E0809583702C
S10B00B085B9FCCFF894FFCFE1
S9030000FC
